{
  "_format": "hh-sol-artifact-1",
  "contractName": "CertificateOfParticipationNFT",
  "sourceName": "contracts/CertificateOfParticipationNFT.sol",
  "abi": [
    {
      "inputs": [],
      "stateMutability": "nonpayable",
      "type": "constructor"
    },
    {
      "anonymous": false,
      "inputs": [
        {
          "indexed": true,
          "internalType": "address",
          "name": "owner",
          "type": "address"
        },
        {
          "indexed": true,
          "internalType": "address",
          "name": "approved",
          "type": "address"
        },
        {
          "indexed": true,
          "internalType": "uint256",
          "name": "tokenId",
          "type": "uint256"
        }
      ],
      "name": "Approval",
      "type": "event"
    },
    {
      "anonymous": false,
      "inputs": [
        {
          "indexed": true,
          "internalType": "address",
          "name": "owner",
          "type": "address"
        },
        {
          "indexed": true,
          "internalType": "address",
          "name": "operator",
          "type": "address"
        },
        {
          "indexed": false,
          "internalType": "bool",
          "name": "approved",
          "type": "bool"
        }
      ],
      "name": "ApprovalForAll",
      "type": "event"
    },
    {
      "anonymous": false,
      "inputs": [
        {
          "indexed": true,
          "internalType": "address",
          "name": "from",
          "type": "address"
        },
        {
          "indexed": true,
          "internalType": "address",
          "name": "to",
          "type": "address"
        },
        {
          "indexed": true,
          "internalType": "uint256",
          "name": "tokenId",
          "type": "uint256"
        }
      ],
      "name": "Transfer",
      "type": "event"
    },
    {
      "inputs": [
        {
          "internalType": "address",
          "name": "to",
          "type": "address"
        },
        {
          "internalType": "uint256",
          "name": "tokenId",
          "type": "uint256"
        }
      ],
      "name": "approve",
      "outputs": [],
      "stateMutability": "nonpayable",
      "type": "function"
    },
    {
      "inputs": [
        {
          "internalType": "address",
          "name": "owner",
          "type": "address"
        }
      ],
      "name": "balanceOf",
      "outputs": [
        {
          "internalType": "uint256",
          "name": "",
          "type": "uint256"
        }
      ],
      "stateMutability": "view",
      "type": "function"
    },
    {
      "inputs": [
        {
          "internalType": "string",
          "name": "text",
          "type": "string"
        }
      ],
      "name": "checkForInvalidCharacters",
      "outputs": [
        {
          "internalType": "bool",
          "name": "",
          "type": "bool"
        }
      ],
      "stateMutability": "pure",
      "type": "function"
    },
    {
      "inputs": [
        {
          "internalType": "uint256",
          "name": "tokenId",
          "type": "uint256"
        }
      ],
      "name": "getApproved",
      "outputs": [
        {
          "internalType": "address",
          "name": "",
          "type": "address"
        }
      ],
      "stateMutability": "view",
      "type": "function"
    },
    {
      "inputs": [
        {
          "internalType": "string",
          "name": "participentName",
          "type": "string"
        }
      ],
      "name": "getCertificate",
      "outputs": [],
      "stateMutability": "nonpayable",
      "type": "function"
    },
    {
      "inputs": [],
      "name": "getCertificateAnonymously",
      "outputs": [],
      "stateMutability": "nonpayable",
      "type": "function"
    },
    {
      "inputs": [
        {
          "internalType": "address",
          "name": "owner",
          "type": "address"
        },
        {
          "internalType": "address",
          "name": "operator",
          "type": "address"
        }
      ],
      "name": "isApprovedForAll",
      "outputs": [
        {
          "internalType": "bool",
          "name": "",
          "type": "bool"
        }
      ],
      "stateMutability": "view",
      "type": "function"
    },
    {
      "inputs": [
        {
          "internalType": "address",
          "name": "",
          "type": "address"
        }
      ],
      "name": "mintedItem",
      "outputs": [
        {
          "internalType": "uint256",
          "name": "",
          "type": "uint256"
        }
      ],
      "stateMutability": "view",
      "type": "function"
    },
    {
      "inputs": [],
      "name": "name",
      "outputs": [
        {
          "internalType": "string",
          "name": "",
          "type": "string"
        }
      ],
      "stateMutability": "view",
      "type": "function"
    },
    {
      "inputs": [
        {
          "internalType": "uint256",
          "name": "tokenId",
          "type": "uint256"
        }
      ],
      "name": "ownerOf",
      "outputs": [
        {
          "internalType": "address",
          "name": "",
          "type": "address"
        }
      ],
      "stateMutability": "view",
      "type": "function"
    },
    {
      "inputs": [
        {
          "internalType": "address",
          "name": "from",
          "type": "address"
        },
        {
          "internalType": "address",
          "name": "to",
          "type": "address"
        },
        {
          "internalType": "uint256",
          "name": "tokenId",
          "type": "uint256"
        }
      ],
      "name": "safeTransferFrom",
      "outputs": [],
      "stateMutability": "nonpayable",
      "type": "function"
    },
    {
      "inputs": [
        {
          "internalType": "address",
          "name": "from",
          "type": "address"
        },
        {
          "internalType": "address",
          "name": "to",
          "type": "address"
        },
        {
          "internalType": "uint256",
          "name": "tokenId",
          "type": "uint256"
        },
        {
          "internalType": "bytes",
          "name": "_data",
          "type": "bytes"
        }
      ],
      "name": "safeTransferFrom",
      "outputs": [],
      "stateMutability": "nonpayable",
      "type": "function"
    },
    {
      "inputs": [
        {
          "internalType": "address",
          "name": "operator",
          "type": "address"
        },
        {
          "internalType": "bool",
          "name": "approved",
          "type": "bool"
        }
      ],
      "name": "setApprovalForAll",
      "outputs": [],
      "stateMutability": "nonpayable",
      "type": "function"
    },
    {
      "inputs": [
        {
          "internalType": "bytes4",
          "name": "interfaceId",
          "type": "bytes4"
        }
      ],
      "name": "supportsInterface",
      "outputs": [
        {
          "internalType": "bool",
          "name": "",
          "type": "bool"
        }
      ],
      "stateMutability": "view",
      "type": "function"
    },
    {
      "inputs": [],
      "name": "symbol",
      "outputs": [
        {
          "internalType": "string",
          "name": "",
          "type": "string"
        }
      ],
      "stateMutability": "view",
      "type": "function"
    },
    {
      "inputs": [
        {
          "internalType": "uint256",
          "name": "tokenId",
          "type": "uint256"
        }
      ],
      "name": "tokenURI",
      "outputs": [
        {
          "internalType": "string",
          "name": "",
          "type": "string"
        }
      ],
      "stateMutability": "view",
      "type": "function"
    },
    {
      "inputs": [
        {
          "internalType": "address",
          "name": "from",
          "type": "address"
        },
        {
          "internalType": "address",
          "name": "to",
          "type": "address"
        },
        {
          "internalType": "uint256",
          "name": "tokenId",
          "type": "uint256"
        }
      ],
      "name": "transferFrom",
      "outputs": [],
      "stateMutability": "nonpayable",
      "type": "function"
    }
  ],
  "bytecode": "0x60806040523480156200001157600080fd5b5060405180606001604052806033815260200162003c45603391396040518060400160405280600581526020017f434f50445400000000000000000000000000000000000000000000000000000081525081600090805190602001906200007a9291906200009c565b508060019080519060200190620000939291906200009c565b505050620001b1565b828054620000aa906200017b565b90600052602060002090601f016020900481019282620000ce57600085556200011a565b82601f10620000e957805160ff19168380011785556200011a565b828001600101855582156200011a579182015b8281111562000119578251825591602001919060010190620000fc565b5b5090506200012991906200012d565b5090565b5b80821115620001485760008160009055506001016200012e565b5090565b7f4e487b7100000000000000000000000000000000000000000000000000000000600052602260045260246000fd5b600060028204905060018216806200019457607f821691505b60208210811415620001ab57620001aa6200014c565b5b50919050565b613a8480620001c16000396000f3fe608060405234801561001057600080fd5b506004361061010b5760003560e01c806370a08231116100a2578063b88d4fde11610071578063b88d4fde146102b6578063c87b56dd146102d2578063e985e9c514610302578063ed0f2e7514610332578063f4e4226a1461034e5761010b565b806370a082311461021c5780638b6b18ff1461024c57806395d89b411461027c578063a22cb4651461029a5761010b565b806323b872dd116100de57806323b872dd146101aa57806342842e0e146101c657806359c87531146101e25780636352211e146101ec5761010b565b806301ffc9a71461011057806306fdde0314610140578063081812fc1461015e578063095ea7b31461018e575b600080fd5b61012a600480360381019061012591906121b5565b61037e565b60405161013791906121fd565b60405180910390f35b610148610460565b60405161015591906122b1565b60405180910390f35b61017860048036038101906101739190612309565b6104f2565b6040516101859190612377565b60405180910390f35b6101a860048036038101906101a391906123be565b610577565b005b6101c460048036038101906101bf91906123fe565b61068f565b005b6101e060048036038101906101db91906123fe565b6106ef565b005b6101ea61070f565b005b61020660048036038101906102019190612309565b610729565b6040516102139190612377565b60405180910390f35b61023660048036038101906102319190612451565b6107db565b604051610243919061248d565b60405180910390f35b61026660048036038101906102619190612451565b610893565b604051610273919061248d565b60405180910390f35b6102846108ab565b60405161029191906122b1565b60405180910390f35b6102b460048036038101906102af91906124d4565b61093d565b005b6102d060048036038101906102cb9190612649565b610953565b005b6102ec60048036038101906102e79190612309565b6109b5565b6040516102f991906122b1565b60405180910390f35b61031c600480360381019061031791906126cc565b610b07565b60405161032991906121fd565b60405180910390f35b61034c600480360381019061034791906127ad565b610b9b565b005b610368600480360381019061036391906127ad565b610cdf565b60405161037591906121fd565b60405180910390f35b60007f80ac58cd000000000000000000000000000000000000000000000000000000007bffffffffffffffffffffffffffffffffffffffffffffffffffffffff1916827bffffffffffffffffffffffffffffffffffffffffffffffffffffffff1916148061044957507f5b5e139f000000000000000000000000000000000000000000000000000000007bffffffffffffffffffffffffffffffffffffffffffffffffffffffff1916827bffffffffffffffffffffffffffffffffffffffffffffffffffffffff1916145b8061045957506104588261112c565b5b9050919050565b60606000805461046f90612825565b80601f016020809104026020016040519081016040528092919081815260200182805461049b90612825565b80156104e85780601f106104bd576101008083540402835291602001916104e8565b820191906000526020600020905b8154815290600101906020018083116104cb57829003601f168201915b5050505050905090565b60006104fd82611196565b61053c576040517f08c379a0000000000000000000000000000000000000000000000000000000008152600401610533906128c9565b60405180910390fd5b6004600083815260200190815260200160002060009054906101000a900473ffffffffffffffffffffffffffffffffffffffff169050919050565b600061058282610729565b90508073ffffffffffffffffffffffffffffffffffffffff168373ffffffffffffffffffffffffffffffffffffffff1614156105f3576040517f08c379a00000000000000000000000000000000000000000000000000000000081526004016105ea9061295b565b60405180910390fd5b8073ffffffffffffffffffffffffffffffffffffffff16610612611202565b73ffffffffffffffffffffffffffffffffffffffff16148061064157506106408161063b611202565b610b07565b5b610680576040517f08c379a0000000000000000000000000000000000000000000000000000000008152600401610677906129ed565b60405180910390fd5b61068a838361120a565b505050565b6106a061069a611202565b826112c3565b6106df576040517f08c379a00000000000000000000000000000000000000000000000000000000081526004016106d690612a7f565b60405180910390fd5b6106ea8383836113a1565b505050565b61070a83838360405180602001604052806000815250610953565b505050565b61072760405180602001604052806000815250610b9b565b565b6000806002600084815260200190815260200160002060009054906101000a900473ffffffffffffffffffffffffffffffffffffffff169050600073ffffffffffffffffffffffffffffffffffffffff168173ffffffffffffffffffffffffffffffffffffffff1614156107d2576040517f08c379a00000000000000000000000000000000000000000000000000000000081526004016107c990612b11565b60405180910390fd5b80915050919050565b60008073ffffffffffffffffffffffffffffffffffffffff168273ffffffffffffffffffffffffffffffffffffffff16141561084c576040517f08c379a000000000000000000000000000000000000000000000000000000000815260040161084390612ba3565b60405180910390fd5b600360008373ffffffffffffffffffffffffffffffffffffffff1673ffffffffffffffffffffffffffffffffffffffff168152602001908152602001600020549050919050565b60086020528060005260406000206000915090505481565b6060600180546108ba90612825565b80601f01602080910402602001604051908101604052809291908181526020018280546108e690612825565b80156109335780601f1061090857610100808354040283529160200191610933565b820191906000526020600020905b81548152906001019060200180831161091657829003601f168201915b5050505050905090565b61094f610948611202565b8383611608565b5050565b61096461095e611202565b836112c3565b6109a3576040517f08c379a000000000000000000000000000000000000000000000000000000000815260040161099a90612a7f565b60405180910390fd5b6109af84848484611775565b50505050565b60606109c082611196565b6109ff576040517f08c379a00000000000000000000000000000000000000000000000000000000081526004016109f690612c35565b60405180910390fd5b6000600660008481526020019081526020016000208054610a1f90612825565b80601f0160208091040260200160405190810160405280929190818152602001828054610a4b90612825565b8015610a985780601f10610a6d57610100808354040283529160200191610a98565b820191906000526020600020905b815481529060010190602001808311610a7b57829003601f168201915b505050505090506000610aa96117d1565b9050600081511415610abf578192505050610b02565b600082511115610af4578082604051602001610adc929190612c91565b60405160208183030381529060405292505050610b02565b610afd846117e8565b925050505b919050565b6000600560008473ffffffffffffffffffffffffffffffffffffffff1673ffffffffffffffffffffffffffffffffffffffff16815260200190815260200160002060008373ffffffffffffffffffffffffffffffffffffffff1673ffffffffffffffffffffffffffffffffffffffff16815260200190815260200160002060009054906101000a900460ff16905092915050565b63629f22fc4210610be1576040517f08c379a0000000000000000000000000000000000000000000000000000000008152600401610bd890612d01565b60405180910390fd5b6000600860003373ffffffffffffffffffffffffffffffffffffffff1673ffffffffffffffffffffffffffffffffffffffff1681526020019081526020016000205414610c63576040517f08c379a0000000000000000000000000000000000000000000000000000000008152600401610c5a90612d93565b60405180910390fd5b610c6d600761188f565b6000610c7960076118a5565b9050610c8533826118b3565b610c9781610c9284611a8d565b611bb8565b80600860003373ffffffffffffffffffffffffffffffffffffffff1673ffffffffffffffffffffffffffffffffffffffff168152602001908152602001600020819055505050565b6000806040518060400160405280600181526020017f7b00000000000000000000000000000000000000000000000000000000000000815250905060006040518060400160405280600181526020017f7d00000000000000000000000000000000000000000000000000000000000000815250905060006040518060400160405280600181526020017f2c00000000000000000000000000000000000000000000000000000000000000815250905060006040518060400160405280600181526020017f3a00000000000000000000000000000000000000000000000000000000000000815250905060006040518060400160405280600181526020017f2200000000000000000000000000000000000000000000000000000000000000815250905060006040518060400160405280600181526020017f2700000000000000000000000000000000000000000000000000000000000000815250905060005b885181101561111b5786604051602001610e599190612db3565b60405160208183030381529060405280519060200120898281518110610e8257610e81612dca565b5b602001015160f81c60f81b604051602001610e9d9190612e46565b604051602081830303815290604052805190602001201480610f27575085604051602001610ecb9190612db3565b60405160208183030381529060405280519060200120898281518110610ef457610ef3612dca565b5b602001015160f81c60f81b604051602001610f0f9190612e46565b60405160208183030381529060405280519060200120145b80610f9a575084604051602001610f3e9190612db3565b60405160208183030381529060405280519060200120898281518110610f6757610f66612dca565b5b602001015160f81c60f81b604051602001610f829190612e46565b60405160208183030381529060405280519060200120145b8061100d575083604051602001610fb19190612db3565b60405160208183030381529060405280519060200120898281518110610fda57610fd9612dca565b5b602001015160f81c60f81b604051602001610ff59190612e46565b60405160208183030381529060405280519060200120145b806110805750826040516020016110249190612db3565b6040516020818303038152906040528051906020012089828151811061104d5761104c612dca565b5b602001015160f81c60f81b6040516020016110689190612e46565b60405160208183030381529060405280519060200120145b806110f35750816040516020016110979190612db3565b604051602081830303815290604052805190602001208982815181106110c0576110bf612dca565b5b602001015160f81c60f81b6040516020016110db9190612e46565b60405160208183030381529060405280519060200120145b15611108576000975050505050505050611127565b808061111390612e90565b915050610e3f565b50600196505050505050505b919050565b60007f01ffc9a7000000000000000000000000000000000000000000000000000000007bffffffffffffffffffffffffffffffffffffffffffffffffffffffff1916827bffffffffffffffffffffffffffffffffffffffffffffffffffffffff1916149050919050565b60008073ffffffffffffffffffffffffffffffffffffffff166002600084815260200190815260200160002060009054906101000a900473ffffffffffffffffffffffffffffffffffffffff1673ffffffffffffffffffffffffffffffffffffffff1614159050919050565b600033905090565b816004600083815260200190815260200160002060006101000a81548173ffffffffffffffffffffffffffffffffffffffff021916908373ffffffffffffffffffffffffffffffffffffffff160217905550808273ffffffffffffffffffffffffffffffffffffffff1661127d83610729565b73ffffffffffffffffffffffffffffffffffffffff167f8c5be1e5ebec7d5bd14f71427d1e84f3dd0314c0f7b2291e5b200ac8c7c3b92560405160405180910390a45050565b60006112ce82611196565b61130d576040517f08c379a000000000000000000000000000000000000000000000000000000000815260040161130490612f4b565b60405180910390fd5b600061131883610729565b90508073ffffffffffffffffffffffffffffffffffffffff168473ffffffffffffffffffffffffffffffffffffffff16148061138757508373ffffffffffffffffffffffffffffffffffffffff1661136f846104f2565b73ffffffffffffffffffffffffffffffffffffffff16145b8061139857506113978185610b07565b5b91505092915050565b8273ffffffffffffffffffffffffffffffffffffffff166113c182610729565b73ffffffffffffffffffffffffffffffffffffffff1614611417576040517f08c379a000000000000000000000000000000000000000000000000000000000815260040161140e90612fdd565b60405180910390fd5b600073ffffffffffffffffffffffffffffffffffffffff168273ffffffffffffffffffffffffffffffffffffffff161415611487576040517f08c379a000000000000000000000000000000000000000000000000000000000815260040161147e9061306f565b60405180910390fd5b611492838383611c2c565b61149d60008261120a565b6001600360008573ffffffffffffffffffffffffffffffffffffffff1673ffffffffffffffffffffffffffffffffffffffff16815260200190815260200160002060008282546114ed919061308f565b925050819055506001600360008473ffffffffffffffffffffffffffffffffffffffff1673ffffffffffffffffffffffffffffffffffffffff168152602001908152602001600020600082825461154491906130c3565b92505081905550816002600083815260200190815260200160002060006101000a81548173ffffffffffffffffffffffffffffffffffffffff021916908373ffffffffffffffffffffffffffffffffffffffff160217905550808273ffffffffffffffffffffffffffffffffffffffff168473ffffffffffffffffffffffffffffffffffffffff167fddf252ad1be2c89b69c2b068fc378daa952ba7f163c4a11628f55a4df523b3ef60405160405180910390a4611603838383611c31565b505050565b8173ffffffffffffffffffffffffffffffffffffffff168373ffffffffffffffffffffffffffffffffffffffff161415611677576040517f08c379a000000000000000000000000000000000000000000000000000000000815260040161166e90613165565b60405180910390fd5b80600560008573ffffffffffffffffffffffffffffffffffffffff1673ffffffffffffffffffffffffffffffffffffffff16815260200190815260200160002060008473ffffffffffffffffffffffffffffffffffffffff1673ffffffffffffffffffffffffffffffffffffffff16815260200190815260200160002060006101000a81548160ff0219169083151502179055508173ffffffffffffffffffffffffffffffffffffffff168373ffffffffffffffffffffffffffffffffffffffff167f17307eab39ab6107e8899845ad3d59bd9653f200f220920489ca2b5937696c318360405161176891906121fd565b60405180910390a3505050565b6117808484846113a1565b61178c84848484611c36565b6117cb576040517f08c379a00000000000000000000000000000000000000000000000000000000081526004016117c2906131f7565b60405180910390fd5b50505050565b606060405180602001604052806000815250905090565b60606117f382611196565b611832576040517f08c379a000000000000000000000000000000000000000000000000000000000815260040161182990613289565b60405180910390fd5b600061183c6117d1565b9050600081511161185c5760405180602001604052806000815250611887565b8061186684611dbe565b604051602001611877929190612c91565b6040516020818303038152906040525b915050919050565b6001816000016000828254019250508190555050565b600081600001549050919050565b600073ffffffffffffffffffffffffffffffffffffffff168273ffffffffffffffffffffffffffffffffffffffff161415611923576040517f08c379a000000000000000000000000000000000000000000000000000000000815260040161191a906132f5565b60405180910390fd5b61192c81611196565b1561196c576040517f08c379a000000000000000000000000000000000000000000000000000000000815260040161196390613361565b60405180910390fd5b61197860008383611c2c565b6001600360008473ffffffffffffffffffffffffffffffffffffffff1673ffffffffffffffffffffffffffffffffffffffff16815260200190815260200160002060008282546119c891906130c3565b92505081905550816002600083815260200190815260200160002060006101000a81548173ffffffffffffffffffffffffffffffffffffffff021916908373ffffffffffffffffffffffffffffffffffffffff160217905550808273ffffffffffffffffffffffffffffffffffffffff16600073ffffffffffffffffffffffffffffffffffffffff167fddf252ad1be2c89b69c2b068fc378daa952ba7f163c4a11628f55a4df523b3ef60405160405180910390a4611a8960008383611c31565b5050565b606060006040518060600160405280603581526020016139da60359139905060006040518060200160405280600081525090506000604051806020016040528060008152509050818051906020012085805190602001201415611b1957611b1283604051602001611afe91906134fd565b604051602081830303815290604052611f1f565b9050611b8e565b611b2285610cdf565b611b61576040517f08c379a0000000000000000000000000000000000000000000000000000000008152600401611b5890613576565b60405180910390fd5b611b8b8584604051602001611b779291906136c6565b604051602081830303815290604052611f1f565b90505b80604051602001611b9f9190613757565b6040516020818303038152906040529350505050919050565b611bc182611196565b611c00576040517f08c379a0000000000000000000000000000000000000000000000000000000008152600401611bf7906137eb565b60405180910390fd5b80600660008481526020019081526020016000209080519060200190611c279291906120a6565b505050565b505050565b505050565b6000611c578473ffffffffffffffffffffffffffffffffffffffff16612083565b15611db1578373ffffffffffffffffffffffffffffffffffffffff1663150b7a02611c80611202565b8786866040518563ffffffff1660e01b8152600401611ca29493929190613860565b6020604051808303816000875af1925050508015611cde57506040513d601f19601f82011682018060405250810190611cdb91906138c1565b60015b611d61573d8060008114611d0e576040519150601f19603f3d011682016040523d82523d6000602084013e611d13565b606091505b50600081511415611d59576040517f08c379a0000000000000000000000000000000000000000000000000000000008152600401611d50906131f7565b60405180910390fd5b805181602001fd5b63150b7a0260e01b7bffffffffffffffffffffffffffffffffffffffffffffffffffffffff1916817bffffffffffffffffffffffffffffffffffffffffffffffffffffffff191614915050611db6565b600190505b949350505050565b60606000821415611e06576040518060400160405280600181526020017f30000000000000000000000000000000000000000000000000000000000000008152509050611f1a565b600082905060005b60008214611e38578080611e2190612e90565b915050600a82611e31919061391d565b9150611e0e565b60008167ffffffffffffffff811115611e5457611e5361251e565b5b6040519080825280601f01601f191660200182016040528015611e865781602001600182028036833780820191505090505b5090505b60008514611f1357600182611e9f919061308f565b9150600a85611eae919061394e565b6030611eba91906130c3565b60f81b818381518110611ed057611ecf612dca565b5b60200101907effffffffffffffffffffffffffffffffffffffffffffffffffffffffffffff1916908160001a905350600a85611f0c919061391d565b9450611e8a565b8093505050505b919050565b6060600082511415611f425760405180602001604052806000815250905061207e565b6000604051806060016040528060408152602001613a0f6040913990506000600360028551611f7191906130c3565b611f7b919061391d565b6004611f87919061397f565b67ffffffffffffffff811115611fa057611f9f61251e565b5b6040519080825280601f01601f191660200182016040528015611fd25781602001600182028036833780820191505090505b509050600182016020820185865187015b8082101561203e576003820191508151603f8160121c168501518453600184019350603f81600c1c168501518453600184019350603f8160061c168501518453600184019350603f8116850151845360018401935050611fe3565b505060038651066001811461205a576002811461206d57612075565b603d6001830353603d6002830353612075565b603d60018303535b50505080925050505b919050565b6000808273ffffffffffffffffffffffffffffffffffffffff163b119050919050565b8280546120b290612825565b90600052602060002090601f0160209004810192826120d4576000855561211b565b82601f106120ed57805160ff191683800117855561211b565b8280016001018555821561211b579182015b8281111561211a5782518255916020019190600101906120ff565b5b509050612128919061212c565b5090565b5b8082111561214557600081600090555060010161212d565b5090565b6000604051905090565b600080fd5b600080fd5b60007fffffffff0000000000000000000000000000000000000000000000000000000082169050919050565b6121928161215d565b811461219d57600080fd5b50565b6000813590506121af81612189565b92915050565b6000602082840312156121cb576121ca612153565b5b60006121d9848285016121a0565b91505092915050565b60008115159050919050565b6121f7816121e2565b82525050565b600060208201905061221260008301846121ee565b92915050565b600081519050919050565b600082825260208201905092915050565b60005b83811015612252578082015181840152602081019050612237565b83811115612261576000848401525b50505050565b6000601f19601f8301169050919050565b600061228382612218565b61228d8185612223565b935061229d818560208601612234565b6122a681612267565b840191505092915050565b600060208201905081810360008301526122cb8184612278565b905092915050565b6000819050919050565b6122e6816122d3565b81146122f157600080fd5b50565b600081359050612303816122dd565b92915050565b60006020828403121561231f5761231e612153565b5b600061232d848285016122f4565b91505092915050565b600073ffffffffffffffffffffffffffffffffffffffff82169050919050565b600061236182612336565b9050919050565b61237181612356565b82525050565b600060208201905061238c6000830184612368565b92915050565b61239b81612356565b81146123a657600080fd5b50565b6000813590506123b881612392565b92915050565b600080604083850312156123d5576123d4612153565b5b60006123e3858286016123a9565b92505060206123f4858286016122f4565b9150509250929050565b60008060006060848603121561241757612416612153565b5b6000612425868287016123a9565b9350506020612436868287016123a9565b9250506040612447868287016122f4565b9150509250925092565b60006020828403121561246757612466612153565b5b6000612475848285016123a9565b91505092915050565b612487816122d3565b82525050565b60006020820190506124a2600083018461247e565b92915050565b6124b1816121e2565b81146124bc57600080fd5b50565b6000813590506124ce816124a8565b92915050565b600080604083850312156124eb576124ea612153565b5b60006124f9858286016123a9565b925050602061250a858286016124bf565b9150509250929050565b600080fd5b600080fd5b7f4e487b7100000000000000000000000000000000000000000000000000000000600052604160045260246000fd5b61255682612267565b810181811067ffffffffffffffff821117156125755761257461251e565b5b80604052505050565b6000612588612149565b9050612594828261254d565b919050565b600067ffffffffffffffff8211156125b4576125b361251e565b5b6125bd82612267565b9050602081019050919050565b82818337600083830152505050565b60006125ec6125e784612599565b61257e565b90508281526020810184848401111561260857612607612519565b5b6126138482856125ca565b509392505050565b600082601f8301126126305761262f612514565b5b81356126408482602086016125d9565b91505092915050565b6000806000806080858703121561266357612662612153565b5b6000612671878288016123a9565b9450506020612682878288016123a9565b9350506040612693878288016122f4565b925050606085013567ffffffffffffffff8111156126b4576126b3612158565b5b6126c08782880161261b565b91505092959194509250565b600080604083850312156126e3576126e2612153565b5b60006126f1858286016123a9565b9250506020612702858286016123a9565b9150509250929050565b600067ffffffffffffffff8211156127275761272661251e565b5b61273082612267565b9050602081019050919050565b600061275061274b8461270c565b61257e565b90508281526020810184848401111561276c5761276b612519565b5b6127778482856125ca565b509392505050565b600082601f83011261279457612793612514565b5b81356127a484826020860161273d565b91505092915050565b6000602082840312156127c3576127c2612153565b5b600082013567ffffffffffffffff8111156127e1576127e0612158565b5b6127ed8482850161277f565b91505092915050565b7f4e487b7100000000000000000000000000000000000000000000000000000000600052602260045260246000fd5b6000600282049050600182168061283d57607f821691505b60208210811415612851576128506127f6565b5b50919050565b7f4552433732313a20617070726f76656420717565727920666f72206e6f6e657860008201527f697374656e7420746f6b656e0000000000000000000000000000000000000000602082015250565b60006128b3602c83612223565b91506128be82612857565b604082019050919050565b600060208201905081810360008301526128e2816128a6565b9050919050565b7f4552433732313a20617070726f76616c20746f2063757272656e74206f776e6560008201527f7200000000000000000000000000000000000000000000000000000000000000602082015250565b6000612945602183612223565b9150612950826128e9565b604082019050919050565b6000602082019050818103600083015261297481612938565b9050919050565b7f4552433732313a20617070726f76652063616c6c6572206973206e6f74206f7760008201527f6e6572206e6f7220617070726f76656420666f7220616c6c0000000000000000602082015250565b60006129d7603883612223565b91506129e28261297b565b604082019050919050565b60006020820190508181036000830152612a06816129ca565b9050919050565b7f4552433732313a207472616e736665722063616c6c6572206973206e6f74206f60008201527f776e6572206e6f7220617070726f766564000000000000000000000000000000602082015250565b6000612a69603183612223565b9150612a7482612a0d565b604082019050919050565b60006020820190508181036000830152612a9881612a5c565b9050919050565b7f4552433732313a206f776e657220717565727920666f72206e6f6e657869737460008201527f656e7420746f6b656e0000000000000000000000000000000000000000000000602082015250565b6000612afb602983612223565b9150612b0682612a9f565b604082019050919050565b60006020820190508181036000830152612b2a81612aee565b9050919050565b7f4552433732313a2062616c616e636520717565727920666f7220746865207a6560008201527f726f206164647265737300000000000000000000000000000000000000000000602082015250565b6000612b8d602a83612223565b9150612b9882612b31565b604082019050919050565b60006020820190508181036000830152612bbc81612b80565b9050919050565b7f45524337323155524953746f726167653a2055524920717565727920666f722060008201527f6e6f6e6578697374656e7420746f6b656e000000000000000000000000000000602082015250565b6000612c1f603183612223565b9150612c2a82612bc3565b604082019050919050565b60006020820190508181036000830152612c4e81612c12565b9050919050565b600081905092915050565b6000612c6b82612218565b612c758185612c55565b9350612c85818560208601612234565b80840191505092915050565b6000612c9d8285612c60565b9150612ca98284612c60565b91508190509392505050565b7f54696d6520746f206d696e7420746865204e4654206973206f76657200000000600082015250565b6000612ceb601c83612223565b9150612cf682612cb5565b602082019050919050565b60006020820190508181036000830152612d1a81612cde565b9050919050565b7f43616e6e6f74206d696e74206d6f7265207468616e206f6e65204e465420706560008201527f7220616464726573730000000000000000000000000000000000000000000000602082015250565b6000612d7d602983612223565b9150612d8882612d21565b604082019050919050565b60006020820190508181036000830152612dac81612d70565b9050919050565b6000612dbf8284612c60565b915081905092915050565b7f4e487b7100000000000000000000000000000000000000000000000000000000600052603260045260246000fd5b60007fff0000000000000000000000000000000000000000000000000000000000000082169050919050565b6000819050919050565b612e40612e3b82612df9565b612e25565b82525050565b6000612e528284612e2f565b60018201915081905092915050565b7f4e487b7100000000000000000000000000000000000000000000000000000000600052601160045260246000fd5b6000612e9b826122d3565b91507fffffffffffffffffffffffffffffffffffffffffffffffffffffffffffffffff821415612ece57612ecd612e61565b5b600182019050919050565b7f4552433732313a206f70657261746f7220717565727920666f72206e6f6e657860008201527f697374656e7420746f6b656e0000000000000000000000000000000000000000602082015250565b6000612f35602c83612223565b9150612f4082612ed9565b604082019050919050565b60006020820190508181036000830152612f6481612f28565b9050919050565b7f4552433732313a207472616e736665722066726f6d20696e636f72726563742060008201527f6f776e6572000000000000000000000000000000000000000000000000000000602082015250565b6000612fc7602583612223565b9150612fd282612f6b565b604082019050919050565b60006020820190508181036000830152612ff681612fba565b9050919050565b7f4552433732313a207472616e7366657220746f20746865207a65726f2061646460008201527f7265737300000000000000000000000000000000000000000000000000000000602082015250565b6000613059602483612223565b915061306482612ffd565b604082019050919050565b600060208201905081810360008301526130888161304c565b9050919050565b600061309a826122d3565b91506130a5836122d3565b9250828210156130b8576130b7612e61565b5b828203905092915050565b60006130ce826122d3565b91506130d9836122d3565b9250827fffffffffffffffffffffffffffffffffffffffffffffffffffffffffffffffff0382111561310e5761310d612e61565b5b828201905092915050565b7f4552433732313a20617070726f766520746f2063616c6c657200000000000000600082015250565b600061314f601983612223565b915061315a82613119565b602082019050919050565b6000602082019050818103600083015261317e81613142565b9050919050565b7f4552433732313a207472616e7366657220746f206e6f6e20455243373231526560008201527f63656976657220696d706c656d656e7465720000000000000000000000000000602082015250565b60006131e1603283612223565b91506131ec82613185565b604082019050919050565b60006020820190508181036000830152613210816131d4565b9050919050565b7f4552433732314d657461646174613a2055524920717565727920666f72206e6f60008201527f6e6578697374656e7420746f6b656e0000000000000000000000000000000000602082015250565b6000613273602f83612223565b915061327e82613217565b604082019050919050565b600060208201905081810360008301526132a281613266565b9050919050565b7f4552433732313a206d696e7420746f20746865207a65726f2061646472657373600082015250565b60006132df602083612223565b91506132ea826132a9565b602082019050919050565b6000602082019050818103600083015261330e816132d2565b9050919050565b7f4552433732313a20746f6b656e20616c7265616479206d696e74656400000000600082015250565b600061334b601c83612223565b915061335682613315565b602082019050919050565b6000602082019050818103600083015261337a8161333e565b9050919050565b7f7b226e616d65223a2022536d61727420436f6e7472616374733a20446576656c60008201527f6f70657220547261696e696e67222c20226465736372697074696f6e223a202260208201527f54686973204e465420636572746966696573207468617420746865206f72696760408201527f696e616c20686f6c646572206a6f696e65642074686520536d61727420436f6e60608201527f74726163747320446576656c6f70657220547261696e696e672073657373696f60808201527f6e20636f6e647563746564206279204f72616e676548524d222c2022696d616760a08201527f655f64617461223a20220000000000000000000000000000000000000000000060c082015250565b600061349b60ca83612c55565b91506134a682613381565b60ca82019050919050565b7f227d000000000000000000000000000000000000000000000000000000000000600082015250565b60006134e7600283612c55565b91506134f2826134b1565b600282019050919050565b60006135088261348e565b91506135148284612c60565b915061351f826134da565b915081905092915050565b7f436f6e7461696e7320696e76616c696420636861726163746572730000000000600082015250565b6000613560601b83612223565b915061356b8261352a565b602082019050919050565b6000602082019050818103600083015261358f81613553565b9050919050565b7f7b226e616d65223a2022536d61727420436f6e7472616374733a20446576656c60008201527f6f70657220547261696e696e67222c20226465736372697074696f6e223a202260208201527f54686973204e4654206365727469666965732074686174200000000000000000604082015250565b6000613618605883612c55565b915061362382613596565b605882019050919050565b7f206a6f696e65642074686520536d61727420436f6e747261637473204465766560008201527f6c6f70657220547261696e696e672073657373696f6e20636f6e64756374656460208201527f206279204f72616e676548524d222c2022696d6167655f64617461223a202200604082015250565b60006136b0605f83612c55565b91506136bb8261362e565b605f82019050919050565b60006136d18261360b565b91506136dd8285612c60565b91506136e8826136a3565b91506136f48284612c60565b91506136ff826134da565b91508190509392505050565b7f646174613a6170706c69636174696f6e2f6a736f6e3b6261736536342c000000600082015250565b6000613741601d83612c55565b915061374c8261370b565b601d82019050919050565b600061376282613734565b915061376e8284612c60565b915081905092915050565b7f45524337323155524953746f726167653a2055524920736574206f66206e6f6e60008201527f6578697374656e7420746f6b656e000000000000000000000000000000000000602082015250565b60006137d5602e83612223565b91506137e082613779565b604082019050919050565b60006020820190508181036000830152613804816137c8565b9050919050565b600081519050919050565b600082825260208201905092915050565b60006138328261380b565b61383c8185613816565b935061384c818560208601612234565b61385581612267565b840191505092915050565b60006080820190506138756000830187612368565b6138826020830186612368565b61388f604083018561247e565b81810360608301526138a18184613827565b905095945050505050565b6000815190506138bb81612189565b92915050565b6000602082840312156138d7576138d6612153565b5b60006138e5848285016138ac565b91505092915050565b7f4e487b7100000000000000000000000000000000000000000000000000000000600052601260045260246000fd5b6000613928826122d3565b9150613933836122d3565b925082613943576139426138ee565b5b828204905092915050565b6000613959826122d3565b9150613964836122d3565b925082613974576139736138ee565b5b828206905092915050565b600061398a826122d3565b9150613995836122d3565b9250817fffffffffffffffffffffffffffffffffffffffffffffffffffffffffffffffff04831182151516156139ce576139cd612e61565b5b82820290509291505056fe697066733a2f2f516d5442546272535361584171576948756a314c77326572576a417246764777335a726d434b664338455a6b336e4142434445464748494a4b4c4d4e4f505152535455565758595a6162636465666768696a6b6c6d6e6f707172737475767778797a303132333435363738392b2fa2646970667358221220fa00d28d234395e3cf8bcbaef63b7724f2a46de90e1eae5f5a8b9d725091c72a64736f6c634300080a00334365727469666963617465204f662050617274696369706174696f6e20666f7220446576656c6f70657220547261696e696e67",
  "linkReferences": {},
  "deployedLinkReferences": {}
}